:100000000C948B000C94BD0C0C94BD0C0C94BD0C8A
:100010000C94BD0C0C94BD0C0C94BD0C0C94BD0C3C
:100020000C94BD0C0C94BD0C0C94BD0C0C94BD0C2C
:100030000C94BD0C0C94BD0C0C94BD0C0C94BD0C1C
:100040000C94BD0C0C94BD0C0C94BD0C0C94BD0C0C
:100050000C94BD0CAE0131023102310231028D012E
:100060003102310231023102310231023102B90171
:10007000A3013102C401CF01DA01E501F001FB0166
:10008000060211021C0227023102310231029801DC
:10009000310231023102D20031021F013501F30079
:1000A000DD0031025601820131024B0131026C0147
:1000B000140131023102FE00E8007701400109011C
:1000C0003102310231022A01610131023102310271
:1000D000310231023102D20031021F013501F30039
:1000E000DD0031025601820131024B0131026C0107
:1000F000140131023102FE00E800770140010901DC
:100100003102310231022A016101006000AA0019A6
:100110008800AA00AF8011241FBECFE5D8E0DEBF63
:10012000CDBFEAE0F1E041E017C0B591A59135916E
:100130002591059107FD0CC095918591EF01F92F4F
:10014000E82F05900D92A217B307D9F7FE0104C05E
:100150001D92A217B307E1F7E631F40731F70E94C9
:0A016000FE090C94600CF894FFCF28
:10016A00E82F81E09091AC00911180E0811109C0E3
:10017A0081E09091AD00993308F080E0882309F47A
:10018A0088C18E2F90E0FC01B097EB35F10508F09D
:10019A0063C1E65DFF4F0C94AC0C2CE732E141E100
:1001AA0052E16CE770E080E090E00E94B20854C12E
:1001BA002FE739E049E059E061E070E080E090E043
:1001CA000E94B20849C12FE739E049E159E26FE4D8
:1001DA0070E080E090E00E94B2083EC12FE739E467
:1001EA0049E459E461E470E080E090E00E94B208DA
:1001FA0033C12EE131E241E35EE360E470E080E086
:10020A0090E00E94B20828C12FE330E440E450E4B1
:10021A006FE370E080E090E00E94B2081DC12FE712
:10022A0032E04CE150E26FE770E080E090E00E943B
:10023A00B20812C12EE331E441E451E461E470E012
:10024A0080E090E00E94B20807C123E03CE040E76A
:10025A005CE063E070E080E090E00E94B208FCC0DD
:10026A002FE731E441E45EE360E070E080E090E093
:10027A000E94B208F1C021E031E04FE751E061E0AD
:10028A0070E080E090E00E94B208E6C02FE738E014
:10029A0044E152E261E470E080E090E00E94B2083A
:1002AA00DBC02FE738E048E058E06FE770E080E015
:1002BA0090E00E94B208D0C021E631E549E455E455
:1002CA0063E470E080E090E00E94B208C5C02FE7C6
:1002DA0032E04CE052E06FE770E080E090E00E948C
:1002EA00B208BAC02FE439E449E459E469EF70E08E
:1002FA0080E090E00E94B208AFC021E431E44FE709
:10030A0051E461E470E080E090E00E94B208A4C089
:10031A0023EC33E748E15EEC63EC70E080E090E0C8
:10032A000E94B20899C024E234E244E254E264E250
:10033A0070E080E090E00E94B2088EC020E030E7D2
:10034A0040E750E760E070E080E090E00E94B20889
:10035A0083C020E030E040E050E060E070E080E000
:10036A0090E00E94B20878C028E138E148E158E1FB
:10037A0068E170E080E090E00E94B2086DC02EE370
:10038A0031E549E455E46EE370E080E090E00E94D4
:10039A00B20862C024E432E44FE750E460E470E05B
:1003AA0080E090E00E94B20857C026E431E641E5B9
:1003BA005EE460E470E080E090E00E94B2084CC025
:1003CA0021E439E449E459E466E370E080E090E02E
:1003DA000E94B20841C028E134E142E15FE760E1EE
:1003EA0070E080E090E00E94B20836C02FE439E461
:1003FA0049E451E561E270E080E090E00E94B208D1
:10040A002BC02CE73AE449E459E461E370E080E068
:10041A0090E00E94B20820C021E039E449E259E1A3
:10042A006FE070E080E090E00E94B20815C027E714
:10043A0039E449E459E467E770E080E090E00E941B
:10044A00B2080AC02FE439E449E459E46FE770E0DE
:10045A0080E090E00E94B2088091AE0088540E9429
:10046A00130B8091AD00805C0E94130B80E00E9408
:10047A00320B8091AD008F5F8093AD00803448F0DD
:10048A008091AC00811105C082E00E94CA091092D5
:04049A00AD00089514
:10049E008F929F92AF92BF92EF92FF920F931F9304
:1004AE00CF93DF93CDB7DEB7EC970FB6F894DEBFE0
:1004BE000FBECDBF7C014A015B010E94AC0A80E0F9
:1004CE000E94B90B8CE0E0E6F0E0DE01119601909F
:1004DE000D928A95E1F7FE013D9683E0DF011D92B4
:1004EE008A95E9F7CE0101960E940F0CF7016585FA
:1004FE007685878590890E94FF0885E0EFE6F0E01B
:10050E00DE01509601900D928A95E1F7CE0140964C
:10051E000E940F0C81E00E94B90B87E0E5E7F0E046
:10052E00DE01559601900D928A95E1F7FE017C96BB
:10053E0088E0DF011D928A95E9F7CE0145960E946B
:10054E000F0CF701608170E080E090E00E9446079A
:10055E0080918400909185009DA38CA3809186004C
:10056E00909187009FA38EA318A6CE0184960E9419
:10057E000F0C86E00E94B90B10E020E430E44EE749
:10058E0052E062E070E080E090E00E94B2081B5FF3
:10059E00A5019401D70111966D917D918D919C913C
:1005AE0014970E94B20C0E942F0A6623D1F000E02D
:1005BE0022E032E042E052E062E070E080E090E063
:1005CE000E94B2081B5F0F5FA5019401F7016181C4
:1005DE007281838194810E94B20C0E942F0A0617A9
:1005EE0038F322E032E04EE750E460E470E080E061
:1005FE0090E00E94B2081B5FA5019401D7011596E9
:10060E006D917D918D919C9118970E94B20C0E94D4
:10061E002F0A6623D1F000E020E430E440E450E4F9
:10062E0060E470E080E090E00E94B2081B5F0F5F14
:10063E00A5019401F70165817681878190850E94DD
:10064E00B20C0E942F0A061738F3183708F495CF0C
:10065E0085E00E94B90B20E03EE348E05CE16AE2EF
:10066E0070E080E090E00E94B208A5019401D701ED
:10067E0011966D917D918D919C9114970E94B20C63
:10068E000E942F0A6623C9F010E028E038E048E007
:10069E0058E068E070E080E090E00E94B2081F5FD2
:1006AE00A5019401F70161817281838194810E9479
:1006BE00B20C0E942F0A161740F328E038E048E0EB
:1006CE0058E068E070E080E090E00E94B208A5017A
:1006DE009401D70115966D917D918D919C911897EE
:1006EE000E94B20C0E942F0A6623C9F010E028E087
:1006FE0038E048E058E068E070E080E090E00E946A
:10070E00B2081F5FA5019401F7016581768187818B
:10071E0090850E94B20C0E942F0A161740F32AE20F
:10072E003CE148E05EE360E070E080E090E00E9433
:10073E00B20884E00E94B90B88E0E9E8F0E0DE013F
:10074E00999601900D928A95E1F7FE01F19687E058
:10075E00DF011D928A95E9F7CE0189960E940F0C52
:10076E00F70161857285838594850E94FF0885E077
:10077E00E8E9F0E0DE01D89601900D928A95E1F756
:10078E00CE01C8960E940F0CEC960FB6F894DEBF01
:10079E000FBECDBFDF91CF911F910F91FF90EF90C4
:0A07AE00BF90AF909F908F900895C8
:1007B800CF92DF92EF92FF92CF93DF93EC01888183
:1007C800813019F0823019F003C08D9A01C08C9ADB
:1007D8001FBC1EBC8FB582608FBD8EB59981990FE5
:1007E800990F990F8061892B8EBD8881813019F00E
:1007F800823059F011C08FB59B819295990F990F4E
:10080800907C8068892B8FBD07C08FB59B8192959E
:10081800907F8062892B8FBD8A81843069F018F4BB
:10082800833030F011C09AEF980F943048F00CC024
:100838009EB5892B8EBD08C08EB583608EBD04C061
:100848009EB58250892B8EBDAE81BF8120E034E2F7
:1008580044EF50E00E94550C0E948D096B017C0109
:100868006C817D8180E090E00E948D0920E030E07D
:100878004AE754E40E94B60C9B01AC01C701B601DB
:100888000E94B20C20E030E040E85FE30E948A0C4E
:100898000E942F0A7093AB006093AA0077BD66BDD3
:1008A8008881813021F0823009F449C08FC08B8162
:1008B800882319F08130D1F089C028858091AA0059
:1008C8009091AB00289FB001299F700D112480E002
:1008D80090E00E948D0920E030E048EC52E40E944C
:1008E800B20C0E942F0A7BBD6ABD70C0688570E09B
:1008F80080E090E00E948F099B01AC0160E070E00D
:1009080088EC92E40E948A0C6B017C016091AA0039
:100918007091AB0080E090E00E948D099B01AC01D2
:10092800C701B6010E94B60C20E030E048EC52E462
:100938000E94B20C0E942F0A7BBD6ABD47C08B8102
:10094800882319F08130D1F041C028858091AA0010
:100958009091AB00289FB001299F700D112480E071
:1009680090E00E948D0920E030E048EC52E40E94BB
:10097800B20C0E942F0A79BD68BD28C0688570E056
:1009880080E090E00E948F099B01AC0160E070E07C
:1009980088EC92E40E948A0C6B017C016091AA00A9
:1009A8007091AB0080E090E00E948D099B01AC0142
:1009B800C701B6010E94B60C20E030E048EC52E4D2
:1009C8000E94B20C0E942F0A79BD68BD1DBC1CBCD8
:0E09D800DF91CF91FF90EF90DF90CF900895C8
:1009E6004F925F926F927F928F929F92AF92BF9239
:1009F600CF92DF92EF92FF920F931F93CF93DF93E5
:100A0600EC018B0188B7806288BF61E080E00E94BC
:100A16003B0C80E00E942D0C8823D9F360E080E037
:100A26000E943B0C1DBC1CBC88B7806288BFC12CD1
:100A3600D12C760109C008B602FE06C088B78460CC
:100A460088BF8FEFE81AF80A80E00E942D0C8823F1
:100A560091F386B597B5C80ED91EE11CF11C61E06D
:100A660080E00E943B0C1DBC1CBC88B7806288BF1E
:100A760006C008B602FE03C088B7846088BF80E05F
:100A86000E942D0C8823A9F386B497B4A12CB12C0F
:100A96002E01612C712CA7019601C301B2010E949F
:100AA600F00B0E948D0920E030E04AE754E40E94F2
:100AB600B60C20E034E244E75BE40E94B20CF80195
:100AC6006083718382839383A7019601280D391D64
:100AD6004A1D5B1DC301B2010E94F00B0E948D09E5
:100AE60020E030E04AE754E40E94B60C20E034E20D
:100AF60044E75BE40E94B20CF80164837583868345
:100B06009783DF91CF911F910F91FF90EF90DF9028
:100B1600CF90BF90AF909F908F907F906F905F9097
:040B26004F9008954F
:100B2A008F929F92AF92BF92CF92DF92EF92FF92F3
:100B3A000F931F93CF93DF93CDB7DEB728970FB6E6
:100B4A00F894DEBF0FBECDBF8C0119821A821B82B8
:100B5A001C821D821E821F821886AE014F5F5F4F64
:100B6A0068E070E080E00E94830CCD80DE80EF8038
:100B7A00F884F801C186D286E386F48689809A8051
:100B8A00AB80BC8081829282A382B482A501940147
:100B9A00C701B6010E948A0CF801658376838783B0
:100BAA009087A701960160E070E080E89FE30E94C9
:100BBA00B20CF801658776878787908B20E030E052
:100BCA0048EC52E4C501B4010E94B60CA701960193
:100BDA000E94B20C0E942F0AF801608328960FB671
:100BEA00F894DEBF0FBECDBFDF91CF911F910F9159
:100BFA00FF90EF90DF90CF90BF90AF909F908F9033
:020C0A0008954B
:100C0C0010C00E94980C58F00E94910C40F029F4EE
:100C1C005F3F29F00C94A60C51110C94A00C0C9471
:100C2C00BA0C0E94CF0A68F39923B1F3552391F3C0
:100C3C00951B550BBB27AA2762177307840738F03F
:100C4C009F5F5F4F220F331F441FAA1FA9F335D09C
:100C5C000E2E3AF0E0E832D091505040E695001C50
:100C6C00CAF72BD0FE2F29D0660F771F881FBB1F0A
:100C7C00261737074807AB07B0E809F0BB0B802DE8
:100C8C00BF01FF2793585F4F3AF09E3F510578F014
:100C9C000C94A60C0C94A00C5F3FE4F3983ED4F398
:100CAC00869577956795B795F7959F5FC9F7880FE8
:100CBC00911D9695879597F90895E1E0660F771F3A
:100CCC00881FBB1F621773078407BA0720F0621BCB
:0E0CDC00730B840BBA0BEE1F88F7E09508959A
:100CEA000FC00E94910C38F00E94980C20F09523B6
:100CFA0011F00C94A60C0C94BA0C11240C94A00CB0
:100D0A000E94CF0A70F3959FC1F3950F50E0551FCB
:100D1A00629FF001729FBB27F00DB11D639FAA2746
:100D2A00F00DB11DAA1F649F6627B00DA11D661F95
:100D3A00829F2227B00DA11D621F739FB00DA11DB6
:100D4A00621F839FA00D611D221F749F3327A00D70
:100D5A00611D231F849F600D211D822F762F6A2F0C
:100D6A0011249F5750409AF0F1F088234AF0EE0F71
:100D7A00FF1FBB1F661F771F881F91505040A9F79E
:100D8A009E3F510580F00C94A60C0C94A00C5F3F7A
:100D9A00E4F3983ED4F3869577956795B795F795DA
:100DAA00E7959F5FC1F7FE2B880F911D9695879552
:040DBA0097F9089508
:100DBE0011C00E94910C38F00E94980C20F039F46A
:100DCE009F3F19F426F40C94BA0C0EF4E095E7FB51
:100DDE000C94A60CE92F0E94CF0A58F3BA1762079B
:100DEE0073078407950720F079F4A6F50C949F0CF1
:100DFE000EF4E0950B2EBA2FA02D0B01B901900128
:100E0E000C01CA01A0011124FF27591B99F0593F6B
:100E1E0050F4503E68F11A16F040A22F232F342FB3
:100E2E004427585FF3CF469537952795A795F04001
:100E3E005395C9F77EF41F16BA0B620B730B840B16
:100E4E00BAF09150A1F0FF0FBB1F661F771F881FCE
:100E5E00C2F70EC0BA0F621F731F841F48F4879526
:100E6E0077956795B795F7959E3F08F0B0CF939518
:0E0E7E00880F08F09927EE0F97958795089535
:100E8C008F929F92AF92BF92CF92DF92EF92FF928E
:100E9C000F931F93CF93DF9300D000D00F92CDB759
:100EAC00DEB76B017C0199235CF48DE20E94B500E6
:100EBC00F094E094D094C094C11CD11CE11CF11CA2
:100ECC001A821982FE01339683E0DF011D928A9506
:100EDC00E9F78E010F5F1F4F0F2EFAE08F2E912C2A
:100EEC00A12CB12CF02DC701B601A50194010E94D3
:100EFC008C0B605DF80161938F01C22ED32EE42E12
:100F0C00F52E1C141D041E041F046CF3CE01019657
:100F1C007C01D8018E918D010E94B500E016F1067E
:100F2C00C1F70F900F900F900F900F90DF91CF9112
:100F3C001F910F91FF90EF90DF90CF90BF90AF90EB
:060F4C009F908F900895B4
:100F5200FC01BB9A13BE93B78181880F880F880F5B
:100F62009064982B93BF93B783818295807F906220
:100F7200982B93BF8281843069F018F4833030F06B
:100F820011C09AEF980F943048F00CC093B7892B98
:100F920083BF08C083B7836083BF04C093B7825006
:100FA200892B83BF1CBE8381882319F08130A1F075
:100FB20030C060858FEF689FB001112480E090E01F
:100FC2000E948D0920E030E048EC52E40E94B20C0D
:100FD2000E942F0A6CBF1DC0608570E080E090E027
:100FE2000E948F099B01AC0160E070E088EC92E402
:100FF2000E948A0C20E030E04FE753E40E94B60CD6
:1010020020E030E048EC52E40E94B20C0E942F0A29
:061012006CBF12BE089540
:101018008130A9F028F0823009F1833071F13CC0A9
:10102800613021F0E0F1623039F003C08BE390E0E9
:10103800089580E090E0089589E390E00895613094
:1010480021F080F1623039F003C088E390E0089520
:1010580080E090E0089586E390E00895613021F003
:1010680020F1623039F003C085E390E0089580E014
:1010780090E0089583E390E00895613021F0C0F096
:10108800623039F003C082E390E0089580E090E098
:10109800089580E390E0089580E090E008958AE361
:1010A80090E0089587E390E0089584E390E0089540
:0610B80081E390E00895C1
:1010BE00FC018F9A15BC95B58181880F880F880F1A
:1010CE009064982B95BD93B783818295807F9062B3
:1010DE00982B93BF928188EF890F823018F085B5D7
:1010EE00892B85BD13BC8381882319F08130A1F033
:1010FE0030C060858FEF689FB001112480E090E0D2
:10110E000E948D0920E030E048EC52E40E94B20CBF
:10111E000E942F0A63BD1DC0608570E080E090E0E4
:10112E000E948F099B01AC0160E070E088EC92E4B4
:10113E000E948A0C20E030E04FE753E40E94B60C88
:10114E0020E030E048EC52E40E94B20C0E942F0ADC
:06115E0063BD14BC0895FE
:101164009F92AF92BF92CF92DF92EF92FF920F9332
:101174001F93CF93DF93922EA32EB42EC52ED62E7B
:10118400E72EF82E192FC0E0D0E08091AE008854ED
:101194000E94130B8091AD00805C0E94130B292DDB
:1011A4003A2D4B2D5C2D6D2D7E2D8F2D912F0C2FD7
:1011B4000E94530B822F0E94320B8091AD008F5FEF
:1011C4008093AD00803448F08091AC00811105C05B
:1011D40082E00E94CA091092AD002896C832D10557
:1011E400A1F6DF91CF911F910F91FF90EF90DF90C7
:0A11F400CF90BF90AF909F90089538
:1011FE008F929F92AF92BF92CF92DF92EF92FF9219
:10120E00CF93DF934B015C010E942F0A6B01E12CFF
:10121E00F12CC701B6010E9446078EE20E94B5006E
:10122E00C701B6010E948D099B01AC01C501B40135
:10123E000E948A0CD3E020E030E040E251E40E94AC
:10124E00B60C6B017C010E942F0AC62F80E38C0F17
:10125E000E94B5006C2F70E080E090E00E948F0934
:10126E009B01AC01C701B6010E948A0CD15019F73F
:10127E00DF91CF91FF90EF90DF90CF90BF90AF9026
:06128E009F908F9008956F
:1012940041E060E081E00E945E0A41E062E081E0BA
:1012A4000E945E0A41E061E081E00E945E0A41E042
:1012B40066E081E00E945E0A41E064E081E00E9411
:1012C4005E0A41E065E081E00E945E0A61E080E040
:1012D4000E94CD0B41E066E081E00E94850A83E034
:1012E4000E94CA098EE30E94130B88EB0E94130B21
:1012F4001092AE0080E40E94130B1092AD0080ECBB
:101304000E94130B8FE30E94130B81E00E94CA0911
:061314001092AC000895E8
:10131A00E89409C097FB3EF4909580957095619585
:10132A007F4F8F4F9F4F9923A9F0F92F96E9BB273B
:10133A009395F695879577956795B795F111F8CFB7
:10134A00FAF4BB0F11F460FF1BC06F5F7F4F8F4F22
:10135A009F4F16C0882311F096E911C0772321F018
:10136A009EE8872F762F05C0662371F096E8862FB0
:10137A0070E060E02AF09A95660F771F881FDAF707
:0A138A00880F9695879597F908954E
:10139400813089F028F08230C9F0833011F108954A
:1013A40040E064E081E00E94850A40E065E081E07D
:1013B4000E94850A089541E064E081E00E94850A64
:1013C40040E065E081E00E94850A089540E064E021
:1013D40081E00E94850A41E065E081E00E94850A7F
:1013E400089541E064E081E00E94850A41E065E0FF
:0813F40081E00E94850A0895C2
:1013FC00CF93DF93CDB7DEB761970FB6F894DEBF0E
:10140C000FBECDBF0E94480CFE01319681E1DF0179
:10141C001D928A95E9F7CE0101960E94950520E070
:10142C0030E040EA50E46A857B858C859D850E947E
:10143C00B20CAB01BC01CE0101960E944F02BFEF72
:10144C0021EE84E0B15020408040E1F700C0000064
:02145C00E2CFDD
:10145E000E94D70A88F09F5798F0B92F9927B75155
:10146E00B0F0E1F0660F771F881F991F1AF0BA953A
:10147E00C9F714C0B13091F00E949F0CB1E00895ED
:10148E000C949F0C672F782F8827B85F39F0B93FDF
:10149E00CCF3869577956795B395D9F73EF49095ED
:0E14AE008095709561957F4F8F4F9F4F0895E9
:1014BC00CF93DF93D62FC42F60E00E940C08CC236F
:1014CC0019F0C13071F018C0FC01408121E030E00E
:1014DC0002C0220F331FDA95E2F7209524232083D4
:1014EC000BC0FC01408121E030E002C0220F331F11
:0E14FC00DA95E2F7242B2083DF91CF9108953B
:10150A00CF93DF93D62FC42F61E00E940C08CC231F
:10151A0019F0C13071F018C0FC01408121E030E0BF
:10152A0002C0220F331FDA95E2F720952423208385
:10153A000BC0FC01408121E030E002C0220F331FC2
:0E154A00DA95E2F7242B2083DF91CF910895EC
:10155800CF93DF93D0E08D2F0E94B90B83E00E94D8
:10156800CA09C0E48C2F0E94130B80E00E94320B42
:10157800CF5FC038B9F7DF5FD83069F70E94000C39
:1015880081E00E94CA091092AC0080E00E94B90B69
:06159800DF91CF910895E0
:10159E0057FD9058440F551F59F05F3F71F0479516
:1015AE00880F97FB991F61F09F3F79F087950895FB
:1015BE00121613061406551FF2CF4695F1DF08C01A
:1015CE00161617061806991FF1CF86957105610537
:0415DE0008940895D0
:1015E200A1E21A2EAA1BBB1BFD010DC0AA1FBB1F25
:1015F200EE1FFF1FA217B307E407F50720F0A21B97
:10160200B30BE40BF50B661F771F881F991F1A9403
:1016120069F760957095809590959B01AC01BD012D
:04162200CF01089557
:10162600CF93C82F40E062E081E00E94850A40E047
:1016360061E081E00E94850A6C2F80E00E946B0CBD
:1016460041E060E081E00E94850A00C000C0000021
:0E16560040E060E081E00E94850ACF91089597
:10166400CF93C82F41E062E081E00E94850A40E008
:1016740061E081E00E94850A6C2F80E00E946B0C7F
:1016840041E060E081E00E94850A00C000C00000E3
:0E16940040E060E081E00E94850ACF91089559
:1016A20097FB10F8169400080F93083098F0085032
:1016B200232F342F452F562F672F782F892F902DC8
:1016C200F4CF0594979587957795679557954795A4
:0C16D200379527950A95AAF70F91089507
:1016DE00FC018E981FBC1EBC9EB58181892B8EBDD0
:1016EE008EB5928140E4949F90011124282B2EBD3B
:1016FE0029B7938130E2939FC0011124822B89BFB9
:0A170E001DBC1CBC17BC16BC0895DE
:10171800052E97FB1EF400940E94740C57FD07D009
:101728000E94F10A07FC03D04EF40C94740C5095F7
:0E1738004095309521953F4F4F4F5F4F0895DC
:10174600FC019081933018F4913020F007C093305B
:1017560049F00895CF010E94A9070895CF010E947C
:0C176600DC030895CF010E945F08089585
:10177200CF93883078F4C82F81E00E94CA09C093C1
:10178200AE0088EB8C0F0E94130B1092AD0080E428
:081792000E94130BCF91089592
:10179A00CF93C62F60E00E940C08CC2319F0C13009
:1017AA0021F006C0FC01108203C02FEFFC01208348
:0417BA00CF9108952E
:1017BE00092E0394000C11F4882352F0BB0F40F451
:1017CE00BF2B11F460FF04C06F5F7F4F8F4F9F4F91
:0217DE0008956C
:1017E000DB018F939F930E94550CBF91AF91A29FF5
:1017F000800D911DA39F900DB29F900D112408950F
:1018000040E066E081E00E94850A83E08A95F1F776
:0E181000000041E066E081E00E94850A089534
:10181E00CF93DF93EC018881882331F021960E94CB
:0E182E00B50089918111FBCFDF91CF91089514
:10183C00A29FB001B39FC001A39F700D811D112405
:0E184C00911DB29F700D811D1124911D0895F4
:10185A00811108C008B605FE07C088B7806288BF34
:0C186A0081E0089580E0089580E008957A
:101876009EB59F7B9EBD811107C08EB590E4699F82
:0A188600B0011124682B6EBD089517
:101890000E944A090E94AC0A8DE990E00E94A30BC5
:0A18A00086EA90E00E947C0C089597
:1018AA000E941E0CA59F900DB49F900DA49F800DC1
:0618BA00911D11240895A8
:1018C000EC010E94C20C0E94C10CCE010E94C30C0C
:0618D000CE010E94BF0CD6
:1018D600CF93C62F61E00E940C08FC01C083CF9114
:0218E600089563
:1018E80090958095709561957F4F8F4F9F4F089584
:0E18F800FC012081211102C00E946F0B089597
:0E190600811104C0CB01BA010E94F3040895C0
:0E1914005058BB27AA270E94DF060C94DF0B59
:0E19220000240A9416161706180609060895E2
:0E19300000240A9412161306140605060895E4
:0E193E00E894BB2766277727CB0197F9089519
:0C194C0097F99F6780E870E060E0089564
:0C195800EE0FFF1F0590F491E02D0994A4
:081964000E9406060C94DF0B43
:08196C000E9475060C94DF0BCC
:061974009FEF80EC0895D6
:04197A000C940000C9
:04197E000E94B30010
:021982000895C6
:021984000895C4
:021986000895C2
:101988004672657175656E63793D00000000002040
:101998006B487A0000447574793D0000000000002F
:1019A8000000000020250000002054696D653D00FE
:0D19B8000000000000000000206D73000022
:0919C500000004010001040032DD
:0419CE000002000013
:00000001FF
